:100000000C94E0030C94F5030C94F5030C94F503A5
:100010000C94F5030C94F5030C94F5030C94F50380
:100020000C94F5030C94F5030C94F5030C94F50370
:100030000C94F5030C94F5030C94F5030C94F50360
:100040000C94F5030C94F5030C94F5030C94F50350
:100050000C94F5030C94F5030C94F5030C94F50340
:100060000C94F5030C94F50306074C069205D8048E
:100070001E046403AA02F00136017C00FF000000A8
:100080000000000000000000000000000000000070
:100090000000000000000000000000000000000060
:1000A0000000000000000000000000000000000050
:1000B0000000000000000000000000000000000040
:1000C0000000000000000000000000000000000030
:1000D0000000000000000000000000000000000020
:1000E0000000000000000000000000000000000010
:1000F0000000000000000000000000000000000000
:1001000000000000000000000000000000000000EF
:1001100000000000000000000000000000000000DF
:1001200000000000000000000000000000000000CF
:10013000000000000000FF000000000000000000C0
:1001400000000000000000000000000000000000AF
:10015000000000000000000000000000000000009F
:10016000000000000000000000000000000000008F
:10017000000000000000000000000000000000007F
:10018000000000000000000000000000000000006F
:10019000000000000000000000000000000000005F
:1001A000000000000000000000000000000000004F
:1001B000000000000000000000000000000000003F
:1001C000000000000000000000000000000000002F
:1001D000000000000000000000000000000000001F
:1001E000000000000000000000000000000000000F
:1001F000FF00000000000000000000000000000000
:1002000000000000000000000000000000000000EE
:1002100000000000000000000000000000000000DE
:1002200000000000000000000000000000000000CE
:1002300000000000000000000000000000000000BE
:1002400000000000000000000000000000000000AE
:10025000000000000000000000000000000000009E
:10026000000000000000000000000000000000008E
:10027000000000000000000000000000000000007E
:10028000000000000000000000000000000000006E
:10029000000000000000000000000000000000005E
:1002A00000000000000000000000FF00000000004F
:1002B000000000000000000000000000000000003E
:1002C000000000000000000000000000000000002E
:1002D000000000000000000000000000000000001E
:1002E000000000000000000000000000000000000E
:1002F00000000000000000000000000000000000FE
:1003000000000000000000000000000000000000ED
:1003100000000000000000000000000000000000DD
:1003200000000000000000000000000000000000CD
:1003300000000000000000000000000000000000BD
:1003400000000000000000000000000000000000AD
:10035000000000000000000000000000000000009D
:1003600000000000FF00000000000000000000008E
:10037000000000000000000000000000000000007D
:10038000000000000000000000000000000000006D
:10039000000000000000000000000000000000005D
:1003A000000000000000000000000000000000004D
:1003B000000000000000000000000000000000003D
:1003C000000000000000000000000000000000002D
:1003D000000000000000000000000000000000001D
:1003E000000000000000000000000000000000000D
:1003F00000000000000000000000000000000000FD
:1004000000000000000000000000000000000000EC
:100410000000000000000000000000000000FF00DD
:1004200000000000000000000000000000000000CC
:1004300000000000000000000000000000000000BC
:1004400000000000000000000000000000000000AC
:10045000000000000000000000000000000000009C
:10046000000000000000000000000000000000008C
:10047000000000000000000000000000000000007C
:10048000000000000000000000000000000000006C
:10049000000000000000000000000000000000005C
:1004A000000000000000000000000000000000004C
:1004B000000000000000000000000000000000003C
:1004C000000000000000000000000000000000002C
:1004D0000000000000000000FF000000000000001D
:1004E000000000000000000000000000000000000C
:1004F00000000000000000000000000000000000FC
:1005000000000000000000000000000000000000EB
:1005100000000000000000000000000000000000DB
:1005200000000000000000000000000000000000CB
:1005300000000000000000000000000000000000BB
:1005400000000000000000000000000000000000AB
:10055000000000000000000000000000000000009B
:10056000000000000000000000000000000000008B
:10057000000000000000000000000000000000007B
:10058000000000000000000000000000000000006B
:100590000000FF000000000000000000000000005C
:1005A000000000000000000000000000000000004B
:1005B000000000000000000000000000000000003B
:1005C000000000000000000000000000000000002B
:1005D000000000000000000000000000000000001B
:1005E000000000000000000000000000000000000B
:1005F00000000000000000000000000000000000FB
:1006000000000000000000000000000000000000EA
:1006100000000000000000000000000000000000DA
:1006200000000000000000000000000000000000CA
:1006300000000000000000000000000000000000BA
:10064000000000000000000000000000FF000000AB
:10065000000000000000000000000000000000009A
:10066000000000000000000000000000000000008A
:10067000000000000000000000000000000000007A
:10068000000000000000000000000000000000006A
:10069000000000000000000000000000000000005A
:1006A000000000000000000000000000000000004A
:1006B000000000000000000000000000000000003A
:1006C000000000000000000000000000000000002A
:1006D000000000000000000000000000000000001A
:1006E000000000000000000000000000000000000A
:1006F00000000000000000000000000000000000FA
:10070000000000000000FF000000000000000000EA
:1007100000000000000000000000000000000000D9
:1007200000000000000000000000000000000000C9
:1007300000000000000000000000000000000000B9
:1007400000000000000000000000000000000000A9
:100750000000000000000000000000000000000099
:100760000000000000000000000000000000000089
:100770000000000000000000000000000000000079
:100780000000000000000000000000000000000069
:100790000000000000000000000000000000000059
:1007A0000000000000000000000000000000000049
:1007B0000000000000000000000000000000000039
:1007C00011241FBECFEFD8E0DEBFCDBF13E0A0E005
:1007D000B1E0EAE1F6E102C005900D92A43EB10756
:1007E000D9F70E9449040C940B0B0C940000109252
:1007F000C50087E68093C40088E08093C10086E04E
:100800008093C20008959091C00095FFFCCF809323
:10081000C6000895CF93DF93EC018991811103C045
:10082000DF91CF9108950E940304F7CF0F931F9398
:10083000CF93DF93CDB7DEB72C970FB6F894DEBF1A
:100840000FBECDBF9F938F937F936F9380E091E016
:100850009F938F938E010F5F1F4F1F930F930E94E3
:100860003508C8010E940A040FB6F894DEBF0FBE17
:10087000CDBF2C960FB6F894DEBF0FBECDBFDF9173
:10088000CF911F910F9108951092800010928100D6
:100890000895CDB7DEB7A1970FB6F894DEBF0FBEAF
:1008A000CDBF0E94F7030E94440484E091E00E94BF
:1008B0000A0480E391E00E940A0488E391E00E9428
:1008C0000A0488E791E00E940A048EE591E00E9404
:1008D0000A048EE691E00E940A0464E170E080E080
:1008E00090E00E94160486E791E00E940A048BE7DC
:1008F00091E00E940A041AE0BE016F5F7F4F83E718
:1009000092E00E940606CE0101960E946706898B3E
:100910008989115089F788E891E00E940A0488EAE1
:1009200091E00E940A0403E712E0812C912C54010B
:100930001E8A1F8A188E198E2FEF3FEFA9012A8B6E
:100940003B8B4C8B5D8B1A8E1B8E1C8E1D8EBE01BD
:100950006F5F7F4FC8010E9406063AE0732ECE01FA
:1009600001960E94B2066B017C01C501B4010E9490
:1009700016048CE20E940304C701B6010E9416040B
:100980008CE20E940304CE0101960E946706282F84
:1009900030E050E040E0CA01B9010E94160488E747
:1009A00091E00E940A048A8D9B8DAC8DBD8D8C0DCB
:1009B0009D1DAE1DBF1D8A8F9B8FAC8FBD8F2A8959
:1009C0003B894C895D89C216D306E406F50620F4FE
:1009D000CA8ADB8AEC8AFD8A8E899F89A88DB98DA7
:1009E0008C159D05AE05BF0520F4CE8ADF8AE88E02
:1009F000F98E7A947110B3CF005C1F4F9FEF891A64
:100A0000990AA90AB90AA5E08A169104A104B104B9
:100A100009F09DCF83EC91E00E940A0487ED91E0FC
:100A20000E940A048EEE91E00E940A046A897B8982
:100A30008C899D890E94160488E791E00E940A042F
:100A40008BEF91E00E940A046E897F89888D998DD1
:100A50000E94160488E791E00E940A0488E092E070
:100A60000E940A046A8D7B8D8C8D9D8D22E330E07F
:100A700040E050E00E94E2062E8F3F8F48A359A32A
:100A8000CA01B9010E94160488E791E00E940A0495
:100A900085E192E00E940A0484E292E00E940A0446
:100AA0002A893B894C895D8984E05695479537951D
:100AB00027958A95D1F7CA01B9010E94160488E7E3
:100AC00091E00E940A0484E392E00E940A046A8D85
:100AD0007B8D8C8D9D8D20E233E040E050E00E94C4
:100AE000E2062A8B3B8B4C8B5D8BCA01B9010E94BD
:100AF000160488E791E00E940A0484E492E00E94D0
:100B00000A048E899F89A88DB98D24E0B695A79592
:100B1000979587952A95D1F78E8B9F8BA88FB98F44
:100B2000BC01CD010E94160488E791E00E940A04EE
:100B300084E592E00E940A049FEFA3EDB0E3915098
:100B4000A040B040E1F700C00000F6CFFF920F9345
:100B50001F93CF93DF9300D000D000D0CDB7DEB786
:100B6000F62E072F182F9E8350E0FA01EE0FFF1F7D
:100B7000ED53FC4F859194914D545C4FFA01F491E3
:100B8000FD839C01990F440B550B29833A834B83BA
:100B90005C83CA01B9010E943C072F2D302F412FE1
:100BA0005E8169837A838B839C8369817A818B815F
:100BB0009C810E94A00769837A838B839C836981CF
:100BC0007A818B819C810E940407BB2797FDBA958F
:100BD000A92F982F872F4D81242F30E0820F931F4C
:100BE00097FD10C08F3F910509F074F426960FB65B
:100BF000F894DEBF0FBECDBFDF91CF911F910F9153
:100C0000FF90089580E0F2CF8FEFF0CFEF92FF9248
:100C10000F931F93CF93DF9300D000D00F92CDB7E7
:100C2000DEB77C018B011D82F70181919191A19129
:100C3000B1917F0189839A83AB83BC834D81BC01D1
:100C4000CD010E94A605D8018D938D01BD81BF5FA6
:100C5000BD83B03149F70F900F900F900F900F9018
:100C6000DF91CF911F910F91FF90EF900895AC010C
:100C7000DB01F0E0E0E096E09E9F90019F9F300D49
:100C80001124FA01E20FF31F6491F9013196E40F88
:100C9000F51F84916F3FD1F0FD01E60FF11D6081DA
:100CA000F901861760F03296E40FF51F8491F9017F
:100CB0003396E40FF51FE491FE2FE82FDDCF349635
:100CC000E40FF51F8491F9013596F3CF0895EF9263
:100CD000FF920F931F93CF93DF9300D000D00F921A
:100CE000CDB7DEB7F82EE92E1A821982FE013396AF
:100CF00083E0DF011D928A95E9F708E610E0F8012C
:100D0000859194916F2D7E2D0E943706E82F8530B6
:100D100050F481E090E08C0F9D1F8E0F911DFC011F
:100D200080818F5F80830E5F1F4F90E00C37190723
:100D300031F7FE01319690E080E020E031912317F9
:100D400010F4892F232F9F5F9530C1F70F900F90DC
:100D50000F900F900F90DF91CF911F910F91FF9007
:100D6000EF900895EF92FF920F931F93CF93DF932D
:100D700000D000D00F92CDB7DEB704E810E0F80144
:100D80001182108221E8E22EF12C21E0F70120836C
:100D90000E94670689838981F7011082F8018081AA
:100DA00091819C0150E040E0CA01B9010F900F9081
:100DB0000F900F900F90DF91CF911F910F91FF90A7
:100DC000EF900895A1E21A2EAA1BBB1BFD010DC0D6
:100DD000AA1FBB1FEE1FFF1FA217B307E407F507EB
:100DE00020F0A21BB30BE40BF50B661F771F881FC7
:100DF000991F1A9469F760957095809590959B015D
:100E0000AC01BD01CF0108950E940B076894B11198
:100E10000C949A0708950E947F0788F09F5798F0D6
:100E2000B92F9927B751B0F0E1F0660F771F881FEF
:100E3000991F1AF0BA95C9F714C0B13091F00E9409
:100E40009907B1E008950C949907672F782F8827A8
:100E5000B85F39F0B93FCCF3869577956795B39530
:100E6000D9F73EF490958095709561957F4F8F4F9F
:100E70009F4F0895E89409C097FB3EF490958095A4
:100E8000709561957F4F8F4F9F4F9923A9F0F92F50
:100E900096E9BB279395F695879577956795B795CE
:100EA000F111F8CFFAF4BB0F11F460FF1BC06F5FB4
:100EB0007F4F8F4F9F4F16C0882311F096E911C0C6
:100EC000772321F09EE8872F762F05C0662371F0E7
:100ED00096E8862F70E060E02AF09A95660F771FFB
:100EE000881FDAF7880F9695879597F9089557FD2B
:100EF0009058440F551F59F05F3F71F04795880F88
:100F000097FB991F61F09F3F79F08795089512161E
:100F100013061406551FF2CF4695F1DF08C01616CA
:100F200017061806991FF1CF86957105610508947B
:100F30000895E894BB2766277727CB0197F9089592
:100F40000E94B3070C9424080E94160838F00E94EF
:100F50001D0820F0952311F00C940D080C94130833
:100F600011240C949A070E94770770F3959FC1F3A0
:100F7000950F50E0551F629FF001729FBB27F00D47
:100F8000B11D639FAA27F00DB11DAA1F649F66279C
:100F9000B00DA11D661F829F2227B00DA11D621FEB
:100FA000739FB00DA11D621F839FA00D611D221FA5
:100FB000749F3327A00D611D231F849F600D211D89
:100FC000822F762F6A2F11249F5750409AF0F1F00C
:100FD00088234AF0EE0FFF1FBB1F661F771F881F75
:100FE00091505040A9F79E3F510580F00C940D0898
:100FF0000C949A075F3FE4F3983ED4F38695779577
:101000006795B795F795E7959F5FC1F7FE2B880F1A
:10101000911D9695879597F9089597F99F6780E8B0
:1010200070E060E008959FEF80EC089500240A943A
:101030001616170618060906089500240A941216B3
:101040001306140605060895092E0394000C11F4E6
:10105000882352F0BB0F40F4BF2B11F460FF04C093
:101060006F5F7F4F8F4F9F4F0895AEE0B0E0EBE38F
:10107000F8E00C94E20A0D891E8986E08C831A83BD
:1010800009838FEF9FE79E838D83AE01475E5F4F9D
:101090006F89788DCE0101960E9458082F8138857E
:1010A000020F131FF80110822E96E4E00C94FE0A42
:1010B000AFE0B0E0EEE5F8E00C94D40A7C013B012F
:1010C0008A01DC0117961C921E92169713968C913A
:1010D00081FFC3C19AE0292EFE0131964F01D7014D
:1010E00013969C91F30193FD859193FF81913F01AC
:1010F000882309F448C1853239F493FD859193FF23
:1011000081913F01853229F4B70190E00E94460A9F
:10111000E6CFB12C412C512CBFE1B51538F08B3204
:1011200009F188F4803201F1833221F157FC3AC091
:1011300020ED280F2A3040F556FE1FC0B29C200D2E
:101140001124B22E06C08D3291F0803379F7689465
:1011500050F8F30193FD859193FF81913F01811137
:10116000DBCF20C0689451F8689452F8F2CF6894AD
:1011700053F8EFCF689454F8ECCF429C200D112423
:10118000422E689455F8E5CF8E3229F456FCFBC008
:10119000689456F8DECF8C3619F4689457F8D9CF96
:1011A0008836B9F2982F9F7D95549330C0F08336DE
:1011B000A1F18337C1F1833509F05BC0D801CD902F
:1011C000DD908D016B2D70E056FC02C06FEF7FEF5C
:1011D000C6010E94300A5C01689457F80AC00C5F8F
:1011E0001F4FEFE3E983AA24A394B12C6401E89490
:1011F00057F853FC04C04A141B0409F018F5342CAA
:10120000A114B10431F5332009F469CFB70180E2AC
:1012100090E00E94460A3A94F6CFD8018C918983D7
:101220000E5F1F4FE0CFF801C190D1908F016B2D61
:1012300070E056FC02C06FEF7FEFC6010E943B0AD0
:101240005C01D5CFB70180E290E00E94460A4A9443
:10125000D2CFF60157FC859157FE81916F01B701FE
:1012600090E00E94460A31103A94B1E0AB1AB108FE
:10127000C7CF843619F0893609F074C0F80157FEDB
:101280006AC061917191819191918F01E52DEF7605
:10129000DE2E97FF09C090958095709561957F4FE0
:1012A0008F4F9F4F6894D7F82AE030E0A4010E9446
:1012B000760AC82EC818AC2C5D2CD6FE0CC0E8945B
:1012C00050F8CB1440F4D4FE05C0D2FC03C05D2D11
:1012D0005E7E552EAB2C54FE98C0FE01EC0DF11D28
:1012E0008081803309F08AC0652D697E562E752D68
:1012F0007870372E53FC98C050FE92C0BC2CA414BA
:1013000018F44C0CB42CBA1854FE94C0B70180E306
:1013100090E00E94460A52FE09C088E790E051FE24
:1013200002C088E590E0B7010E94460ACB1408F499
:101330008DC0CA94D12C8FEFC81AD80AC80CD91CFA
:10134000D6018E916D01B70190E00E94460A8C147F
:101350009D04B1F758CF61917191072E000C880B55
:10136000990B93CFD52CE894D4F82AE030E0853758
:1013700039F1F52DF97FDF2E8037A9F058F4883543
:10138000A9F08F36D9F0F701868197812F96E2E197
:101390000C94F00A8837B9F7D4FE02C06894D2F8EA
:1013A00020E130E00DC06894D4F8F6CF54FE03C0BD
:1013B0002F2F2660D22E20E132E002C028E030E05C
:1013C000F801D7FE15C041915191619171914C87FF
:1013D0005D876E877F878F01A4016C857D858E85F3
:1013E0009F850E94760AC82EC818E894D7F863CF64
:1013F00081919191AC0170E060E0E9CF52FC02C0B4
:10140000A39475CFA394A39472CF852D867809F405
:101410006ECFF6CFB70180E290E00E94460AA39417
:10142000A414C0F3312C70CF342C3A18A41408F44F
:101430006BCFF8CF852D867809F478CF8BE251FEFB
:1014400080E257FC8DE2B70190E06ECFB70180E3F8
:1014500090E00E94460ABA9469CF8FEF9FEF96CF33
:10146000FC010590615070400110D8F7809590956F
:101470008E0F9F1F0895FC01615070400190011074
:10148000D8F7809590958E0F9F1F08950F931F9307
:10149000CF93DF93182F092FEB018B8181FD09C0BA
:1014A0001FEF0FEF812F902FDF91CF911F910F91A1
:1014B000089582FF14C02E813F818C819D81281761
:1014C00039073CF4E881F981CF010196998388833B
:1014D00010838E819F8101969F838E83E3CFE88561
:1014E000F985812F0995892BA1F3DACFFA01AA2773
:1014F000283051F1203181F1E8946F936E7F6E5F57
:101500007F4F8F4F9F4FAF4FB1E03ED0B4E03CD004
:10151000670F781F891F9A1FA11D680F791F8A1FE7
:10152000911DA11D6A0F711D811D911DA11D20D04E
:1015300009F468943F912AE0269F11243019305D08
:101540003193DEF6CF010895462F4770405D4193F9
:10155000B3E00FD0C9F7F6CF462F4F70405D4A3346
:1015600018F0495D31FD4052419302D0A9F7EACF0E
:10157000B4E0A6959795879577956795BA95C9F73D
:1015800000976105710508959B01AC010A2E069430
:101590005795479537952795BA95C9F7620F731FE9
:1015A000841F951FA01D08952F923F924F925F9226
:1015B0006F927F928F929F92AF92BF92CF92DF9263
:1015C000EF92FF920F931F93CF93DF93CDB7DEB7C8
:1015D000CA1BDB0B0FB6F894DEBF0FBECDBF09945C
:1015E0002A88398848885F846E847D848C849B84B3
:1015F000AA84B984C884DF80EE80FD800C811B81C1
:10160000AA81B981CE0FD11D0FB6F894DEBF0FBEEF
:0A161000CDBFED010895F894FFCF5F
:10161A00256C75000D0A3D3D3D2041565220496E0C
:10162A00666572656E6365204C6174656E637920C8
:10163A0042656E63686D61726B203D3D3D0D0A0027
:10164A004D6F64656C3A200048697374477261642F
:10165A0069656E745F426F6F7374696E675F4E6F10
:10166A005F4F76657273616D706C696E6700465F75
:10167A004350553A203136204D487A0D0A005472AB
:10168A006565733A20000D0A0D0A005761726D2DC7
:10169A0075702E2E2E0D0A000D0A42656E63686D56
:1016AA0061726B20526573756C7473202863796359
:1016BA006C6573293A0D0A0053616D706C652C4391
:1016CA0079636C65732C50726564696374696F6EB3
:1016DA000D0A000D0A3D3D3D2053756D6D6172790D
:1016EA00203D3D3D0D0A00546F74616C206974659C
:1016FA00726174696F6E733A2035300D0A004D6954
:10170A006E206379636C65733A20004D61782063BB
:10171A0079636C65733A2000417667206379636C5C
:10172A0065733A20000D0A4174203136204D487AFB
:10173A003A0D0A004D696E2074696D65202875732B
:10174A00293A20004176672074696D6520287573EF
:10175A00293A20004D61782074696D6520287573D7
:10176A00293A20000D0A3D3D3D2042656E63686DB1
:10177A0061726B20436F6D706C657465203D3D3DF1
:10178A000D0A000000803F0000003F0000004000FA
:10179A0000C03F000000000000803F0000003F0042
:1017AA000000400000C03F000000000000803F0031
:1017BA0000003F000000400000C03F0000000000A1
:1017CA0000803F0000000000000000000000000050
:1017DA0000000000000000000000000000000000FF
:1017EA0000000000000000000000000000000000EF
:1017FA0000000000000000000000000000000000DF
:10180A000000000000A0400000A0400000A040002E
:10181A0000A0400000A0400000A0400000A040003E
:10182A0000A0400000A0400000A0400000A040002E
:10183A0000A0400000A0400000A0400000A040001E
:10184A0000A040000020400000803F00004040000F
:10185A0000003F000000400000C03FCDCC4C3F9A42
:10186A0099993F000020400000803F00004040005E
:10187A0000003F000000400000C03FCDCC4C3F9A22
:10188A0099993F00002041000000410000C040003B
:10189A0000804000000040000000000000803F007F
:1018AA000040400000A0400000E04000001041005D
:1018BA0000304100005041000070410000884100A2
:1018CA000098410000000000000000000000000035
:1018DA00000000120000FF3001A0022D0200FF0EDE
:1018EA0002930200FF93020E012B000E0143010036
:0418FA0011A705002D
:00000001FF
