:100000000C9488050C949D050C949D050C949D05FD
:100010000C949D050C949D050C949D050C949D05D8
:100020000C949D050C949D050C949D050C949D05C8
:100030000C949D050C949D050C949D050C949D05B8
:100040000C949D050C949D050C949D050C949D05A8
:100050000C949D050C949D050C949D050C949D0598
:100060000C949D050C949D051209FC069E04B80293
:1000700072000B00010002000100030004000A00EE
:10008000050006000E1607000800040609000A0015
:100090000D010B000C0005000D000E0005000F0007
:1000A00010000E34110012000D03130014000000A4
:1000B000150016000D0017001800080019001A009E
:1000C0000B011B001C00FF0300000000FF030000E9
:1000D00000000E031D001E0008001F0020000F037B
:1000E0002100220006062300240003152500260017
:1000F000061027002800080029002A0008762B0097
:100100002C0008002D002E000F0C2F0030000F0BCC
:1001100031003200041D330034000C00350036007D
:100120000000370038000C0739003A0009033B0093
:100130003C0004003D003E0009083F004000FF0372
:10014000000000000600410042000F0C4300440084
:10015000040045004600FF01000000000F0A4700B0
:100160004800FF0100000000040749004A000000A9
:100170004B004C00070B4D004E0000004F0050009C
:100180000604510052000F14530054000F0755008D
:1001900056000614570058000B0059005A00000082
:1001A0005B005C000F135D005E00FF0300000000B9
:1001B000FF030000000000005F006000FF0300007C
:1001C0000000FF0300000000FF0300000000FF0428
:1001D00000000000FF0300000000FF03000000001B
:1001E000FF0300000000FF0300000000FF03000009
:1001F0000000FF0300000000FF0000000000FF04FB
:1002000000000000FF0400000000FF0400000000E8
:10021000FF0400000000FF0200000000FF010000DA
:100220000000FF0100000000FF0200000000FF01CD
:1002300000000000FF0100000000FF0000000000BF
:10024000FF0000000000FF0400000000FF030000AA
:100250000000FF0000000000FF0100000000FF029E
:1002600000000000FF0100000000FF01000000008E
:10027000FF0200000000FF0400000000FF02000079
:100280000000FF0100000000FF0200000000FF016D
:1002900000000000FF0100000000FF01000000005E
:1002A000FF0300000000FF0300000000FF03000048
:1002B0000000FF03000000000A00010002000C051E
:1002C000030004000B000500060001FF0700080002
:1002D000040309000A000C070B000C00FF030000D8
:1002E000000005000D000E000D020F0010000000C0
:1002F000110012000C0B130014000A051500160063
:100300000400170018000F1A19001A0004041B003B
:100310001C0004021D001E0003321F00200000000C
:10032000210022000F1323002400030125002600D2
:10033000000027002800040529002A0002062B00DF
:100340002C00FF03000000000E202D002E000F16D1
:100350002F003000FF03000000000C0131003200CC
:10036000FF03000000000342330034000F03350098
:100370003600080037003800070039003A0007054A
:100380003B003C0004003D003E0004003F004000F4
:1003900007044100420004064300440003284500CE
:1003A00046000606470048000B0049004A000A04C0
:1003B0004B004C00FF030000000000004D004E0009
:1003C000FF03000000000A044F005000FF0300007C
:1003D0000000FF0300000000FF0300000000FF0317
:1003E00000000000FF0300000000FF040000000008
:1003F000FF0100000000FF0000000000FF010000FE
:100400000000FF0100000000FF0100000000FF01EC
:1004100000000000FF0100000000FF0100000000DC
:10042000FF0400000000FF0300000000FF010000C7
:100430000000FF0400000000FF0400000000FF04B3
:1004400000000000FF0400000000FF0200000000A8
:10045000FF0200000000FF0100000000FF0100009B
:100460000000FF0100000000FF0100000000FF0489
:1004700000000000FF0100000000FF03000000007A
:10048000FF0300000000FF0300000000FF03000066
:100490000000FF0300000000FF04000000000A004D
:1004A000010002000D01030004000D00050006001C
:1004B000040307000800080009000A0000000B0000
:1004C0000C0009010D000E0007190F0010000500B7
:1004D00011001200000013001400040015001600A3
:1004E0000E2517001800040019001A000B011B004C
:1004F0001C0009041D001E000B001F002000FF044B
:10050000000000000C0021002200FF03000000009A
:100510000316230024000F092500260004002700ED
:100520002800000029002A000E012B002C000F0BD0
:100530002D002E000E002F0030000401310032008B
:100540000A02330034000401350036000B01370085
:100550003800000039003A0001FF3B003C000C016C
:100560003D003E000D013F00400000004100420000
:100570000C094300440007004500460009014700FC
:100580004800000049004A000C004B004C000F07D7
:100590004D004E0002004F005000FF03000000001D
:1005A00000005100520000005300540004025500A6
:1005B0005600FF0300000000040057005800FF032E
:1005C00000000000040059005A00FF030000000072
:1005D00002005B005C000F065D005E0004005F002F
:1005E0006000FF03000000000A0061006200FF03DA
:1005F00000000000FF03000000000A006300640028
:10060000FF0300000000FF0400000000FF000000E6
:100610000000FF0200000000FF0000000000FF02D9
:1006200000000000FF0100000000FF0100000000CA
:10063000FF0100000000FF0100000000FF010000BA
:100640000000FF0100000000FF0200000000FF03A7
:1006500000000000FF0400000000FF040000000094
:10066000FF0200000000FF0100000000FF02000088
:100670000000FF0300000000FF0100000000FF0376
:1006800000000000FF0300000000FF030000000066
:10069000FF0300000000FF0300000000FF03000054
:1006A0000000FF0300000000FF0300000000FF0344
:1006B00000000000FF0300000000FF030000000036
:1006C000FF0300000000FF0300000000FF03000024
:1006D0000000FF0300000000FF0300000000FF0314
:1006E00000000000FF0300000000FF030000000006
:1006F000FF0300000000FF040000000005000100EF
:1007000002000D02030004000C07050006000402AD
:100710000700080001FF09000A000A000B000C0096
:100720000E080D000E000A000F0010000B01110052
:1007300012000D03130014000306150016000A0032
:1007400017001800000019001A000E001B001C0002
:10075000FF03000000000B011D001E000D021F0022
:1007600020000C00210022000603230024000D03BA
:1007700025002600040E27002800000029002A007A
:1007800003412B002C000D002D002E000D012F0029
:100790003000040431003200FF0300000000FF03BA
:1007A0000000000009003300340006073500360061
:1007B0000C0137003800FF03000000000D02390073
:1007C0003A0004043B003C000C063D003E000000E3
:1007D0003F00400003154100420000004300440078
:1007E0000400450046000C0047004800FF030000DD
:1007F0000000080049004A000F0E4B004C000D039A
:100800004D004E00FF010000000004044F005000A6
:100810000909510052000F4E53005400FF0300001D
:1008200000000C0155005600FF0300000000090005
:1008300057005800FF0300000000FF040000000004
:10084000FF0400000000FF0000000000FF020000A5
:100850000000FF0300000000FF0300000000FF0095
:1008600000000000FF0000000000FF010000000089
:10087000FF0100000000FF0300000000FF03000074
:100880000000FF0100000000FF0300000000FF0364
:1008900000000000FF0300000000FF040000000053
:1008A000FF0300000000FF0300000000FF03000042
:1008B0000000FF0200000000FF0100000000FF0236
:1008C00000000000FF0400000000FF010000000025
:1008D000FF0100000000FF0300000000FF03000014
:1008E0000000FF0300000000FF0300000000FF0302
:1008F00000000000FF0300000000FF0300000000F4
:10090000FF0300000000FF0400000000FF030000E0
:10091000000001B501000200083B030004000615B9
:10092000050006000D00070008000D0009000A0080
:10093000072A0B000C000D030D000E0002090F002A
:10094000100009081100120000001300140000003C
:1009500015001600040417001800061419001A00E8
:100960000B001B001C0000001D001E000F091F00D3
:100970002000FF0300000000090321002200FF0304
:1009800000000000000023002400FF03000000001E
:100990000D0325002600FF030000000004022700CD
:1009A0002800080029002A00FF0400000000FF04BE
:1009B00000000000062A2B002C0003162D002E003C
:1009C00007382F0030000F0F3100320004063300CB
:1009D0003400FF03000000000C003500360000006A
:1009E00037003800040339003A0000003B003C00A7
:1009F00000003D003E000B013F0040000B014100A4
:100A000042000C06430044000F11450046000F0051
:100A100047004800030549004A00FF0400000000A9
:100A200007274B004C0000004D004E000C014F000A
:100A30005000FF04000000000305510052000710A1
:100A400053005400FF0300000000FF0300000000FB
:100A5000FF0300000000FF0300000000FF03000090
:100A60000000FF0300000000FF0300000000FF0380
:100A700000000000FF0300000000FF030000000072
:100A8000FF0300000000FF0300000000FF03000060
:100A90000000FF0300000000FF0400000000FF0052
:100AA00000000000FF0100000000FF010000000046
:100AB000FF0200000000FF0100000000FF00000036
:100AC0000000FF0100000000FF0400000000FF0123
:100AD00000000000FF0000000000FF040000000014
:100AE000FF0100000000FF0100000000FF01000006
:100AF0000000FF0100000000FF0400000000FF01F3
:100B000000000000FF0200000000FF0400000000E1
:100B100011241FBECFEFD8E0DEBFCDBF13E0A0E0B1
:100B2000B1E0EAE6F9E102C005900D92AA3DB107F5
:100B3000D9F70E94F1050C94B30C0C9400001092AC
:100B4000C50087E68093C40088E08093C10086E0FA
:100B50008093C20008959091C00095FFFCCF8093D0
:100B6000C6000895CF93DF93EC018991811103C0F2
:100B7000DF91CF9108950E94AB05F7CF0F931F939C
:100B8000CF93DF93CDB7DEB72C970FB6F894DEBFC7
:100B90000FBECDBF9F938F937F936F9380E091E0C3
:100BA0009F938F938E010F5F1F4F1F930F930E9490
:100BB000DD09C8010E94B2050FB6F894DEBF0FBE72
:100BC000CDBF2C960FB6F894DEBF0FBECDBFDF9120
:100BD000CF911F910F910895109280001092810083
:100BE0000895CDB7DEB7A1970FB6F894DEBF0FBE5C
:100BF000CDBF0E949F050E94EC0584E091E00E9419
:100C0000B20580E391E00E94B20588E391E00E9482
:100C1000B2058EE691E00E94B20584E591E00E9463
:100C2000B20584E691E00E94B20565E070E080E0E4
:100C300090E00E94BE058CE691E00E94B20581E73B
:100C400091E00E94B2051AE0BE016F5F7F4F89E616
:100C500092E00E94AE07CE0101960E940F08898B98
:100C60008989115089F78EE791E00E94B2058EE9DB
:100C700091E00E94B20509E612E0812C912C54010A
:100C80001E8A1F8A188E198E2FEF3FEFA9012A8B1B
:100C90003B8B4C8B5D8B1A8E1B8E1C8E1D8EBE016A
:100CA0006F5F7F4FC8010E94AE073AE0732ECE01FE
:100CB00001960E945A086B017C01C501B4010E9493
:100CC000BE058CE20E94AB05C701B6010E94BE05BD
:100CD0008CE20E94AB05CE0101960E940F08282FDE
:100CE00030E050E040E0CA01B9010E94BE058EE646
:100CF00091E00E94B2058A8D9B8DAC8DBD8D8C0DCF
:100D00009D1DAE1DBF1D8A8F9B8FAC8FBD8F2A8905
:100D10003B894C895D89C216D306E406F50620F4AA
:100D2000CA8ADB8AEC8AFD8A8E899F89A88DB98D53
:100D30008C159D05AE05BF0520F4CE8ADF8AE88EAE
:100D4000F98E7A947110B3CF005C1F4F9FEF891A10
:100D5000990AA90AB90AA5E08A169104A104B10466
:100D600009F09DCF89EB91E00E94B2058DEC91E0F6
:100D70000E94B20584EE91E00E94B2056A897B89E7
:100D80008C899D890E94BE058EE691E00E94B20585
:100D900081EF91E00E94B2056E897F89888D998DDF
:100DA0000E94BE058EE691E00E94B2058EEF91E0B2
:100DB0000E94B2056A8D7B8D8C8D9D8D22E330E083
:100DC00040E050E00E948A082E8F3F8F48A359A32D
:100DD000CA01B9010E94BE058EE691E00E94B205EB
:100DE0008BE092E00E94B2058AE192E00E94B20597
:100DF0002A893B894C895D8984E0569547953795CA
:100E000027958A95D1F7CA01B9010E94BE058EE6E1
:100E100091E00E94B2058AE292E00E94B2056A8DDA
:100E20007B8D8C8D9D8D20E233E040E050E00E9470
:100E30008A082A8B3B8B4C8B5D8BCA01B9010E94BF
:100E4000BE058EE691E00E94B2058AE392E00E9420
:100E5000B2058E899F89A88DB98D24E0B695A79596
:100E6000979587952A95D1F78E8B9F8BA88FB98FF1
:100E7000BC01CD010E94BE058EE691E00E94B20544
:100E80008AE492E00E94B2059FEFA3EDB0E3915097
:100E9000A040B040E1F700C00000F6CFFF920F93F2
:100EA0001F93CF93DF9300D000D000D0CDB7DEB733
:100EB000F62E072F182F9E8350E0FA01EE0FFF1F2A
:100EC000E754FC4F8591949147555C4FFA01F4919A
:100ED000FD839C01990F440B550B29833A834B8367
:100EE0005C83CA01B9010E94E4082F2D302F412FE5
:100EF0005E8169837A838B839C8369817A818B810C
:100F00009C810E94480969837A838B839C836981D1
:100F10007A818B819C810E94AC08BB2797FDBA9592
:100F2000A92F982F872F4D81242F30E0820F931FF8
:100F300097FD10C08F3F910509F074F426960FB607
:100F4000F894DEBF0FBECDBFDF91CF911F910F91FF
:100F5000FF90089580E0F2CF8FEFF0CFEF92FF92F5
:100F60000F931F93CF93DF9300D000D00F92CDB794
:100F7000DEB77C018B011D82F70181919191A191D6
:100F8000B1917F0189839A83AB83BC834D81BC017E
:100F9000CD010E944E07D8018D938D01BD81BF5FA9
:100FA000BD83B03149F70F900F900F900F900F90C5
:100FB000DF91CF911F910F91FF90EF900895AC01B9
:100FC000DB01F0E0E0E096E09E9F90019F9F300DF6
:100FD0001124FA01E20FF31F6491F9013196E40F35
:100FE000F51F84916F3FD1F0FD01E60FF11D608187
:100FF000F901861760F03296E40FF51F8491F9012C
:101000003396E40FF51FE491FE2FE82FDDCF3496E1
:10101000E40FF51F8491F9013596F3CF0895EF920F
:10102000FF920F931F93CF93DF9300D000D00F92C6
:10103000CDB7DEB7F82EE92E1A821982FE0133965B
:1010400083E0DF011D928A95E9F708E610E0F801D8
:10105000859194916F2D7E2D0E94DF07E82F8530BA
:1010600050F481E090E08C0F9D1F8E0F911DFC01CC
:1010700080818F5F80830E5F1F4F90E002371907DA
:1010800031F7FE01319690E080E020E031912317A6
:1010900010F4892F232F9F5F9530C1F70F900F9089
:1010A0000F900F900F90DF91CF911F910F91FF90B4
:1010B000EF900895EF92FF920F931F93CF93DF93DA
:1010C00000D000D00F92CDB7DEB704E810E0F801F1
:1010D0001182108221E8E22EF12C21E0F701208319
:1010E0000E940F0889838981F7011082F8018081AD
:1010F00091819C0150E040E0CA01B9010F900F902E
:101100000F900F900F90DF91CF911F910F91FF9053
:10111000EF900895A1E21A2EAA1BBB1BFD010DC082
:10112000AA1FBB1FEE1FFF1FA217B307E407F50797
:1011300020F0A21BB30BE40BF50B661F771F881F73
:10114000991F1A9469F760957095809590959B0109
:10115000AC01BD01CF0108950E94B3086894B1119C
:101160000C94420908950E94270988F09F5798F02F
:10117000B92F9927B751B0F0E1F0660F771F881F9C
:10118000991F1AF0BA95C9F714C0B13091F00E94B6
:101190004109B1E008950C944109672F782F882701
:1011A000B85F39F0B93FCCF3869577956795B395DD
:1011B000D9F73EF490958095709561957F4F8F4F4C
:1011C0009F4F0895E89409C097FB3EF49095809551
:1011D000709561957F4F8F4F9F4F9923A9F0F92FFD
:1011E00096E9BB279395F695879577956795B7957B
:1011F000F111F8CFFAF4BB0F11F460FF1BC06F5F61
:101200007F4F8F4F9F4F16C0882311F096E911C072
:10121000772321F09EE8872F762F05C0662371F093
:1012200096E8862F70E060E02AF09A95660F771FA7
:10123000881FDAF7880F9695879597F9089557FDD7
:101240009058440F551F59F05F3F71F04795880F34
:1012500097FB991F61F09F3F79F0879508951216CB
:1012600013061406551FF2CF4695F1DF08C0161677
:1012700017061806991FF1CF869571056105089428
:101280000895E894BB2766277727CB0197F908953F
:101290000E945B090C94CC090E94BE0938F00E94A0
:1012A000C50920F0952311F00C94B5090C94BB09E5
:1012B00011240C9442090E941F0970F3959FC1F3F9
:1012C000950F50E0551F629FF001729FBB27F00DF4
:1012D000B11D639FAA27F00DB11DAA1F649F662749
:1012E000B00DA11D661F829F2227B00DA11D621F98
:1012F000739FB00DA11D621F839FA00D611D221F52
:10130000749F3327A00D611D231F849F600D211D35
:10131000822F762F6A2F11249F5750409AF0F1F0B8
:1013200088234AF0EE0FFF1FBB1F661F771F881F21
:1013300091505040A9F79E3F510580F00C94B5099B
:101340000C9442095F3FE4F3983ED4F38695779579
:101350006795B795F795E7959F5FC1F7FE2B880FC7
:10136000911D9695879597F9089597F99F6780E85D
:1013700070E060E008959FEF80EC089500240A94E7
:101380001616170618060906089500240A94121660
:101390001306140605060895092E0394000C11F493
:1013A000882352F0BB0F40F4BF2B11F460FF04C040
:1013B0006F5F7F4F8F4F9F4F0895AEE0B0E0E3EE39
:1013C000F9E00C948A0C0D891E8986E08C831A83BF
:1013D00009838FEF9FE79E838D83AE01475E5F4F4A
:1013E0006F89788DCE0101960E94000A2F81388581
:1013F000020F131FF80110822E96E4E00C94A60C45
:10140000AFE0B0E0E6E0FAE00C947C0C7C013B013C
:101410008A01DC0117961C921E92169713968C91E6
:1014200081FFC3C19AE0292EFE0131964F01D701F9
:1014300013969C91F30193FD859193FF81913F0158
:10144000882309F448C1853239F493FD859193FFCF
:1014500081913F01853229F4B70190E00E94EE0BA3
:10146000E6CFB12C412C512CBFE1B51538F08B32B1
:1014700009F188F4803201F1833221F157FC3AC03E
:1014800020ED280F2A3040F556FE1FC0B29C200DDB
:101490001124B22E06C08D3291F0803379F7689412
:1014A00050F8F30193FD859193FF81913F018111E4
:1014B000DBCF20C0689451F8689452F8F2CF68945A
:1014C00053F8EFCF689454F8ECCF429C200D1124D0
:1014D000422E689455F8E5CF8E3229F456FCFBC0B5
:1014E000689456F8DECF8C3619F4689457F8D9CF43
:1014F0008836B9F2982F9F7D95549330C0F083368B
:10150000A1F18337C1F1833509F05BC0D801CD90DB
:10151000DD908D016B2D70E056FC02C06FEF7FEF08
:10152000C6010E94D80B5C01689457F80AC00C5F92
:101530001F4FEFE3E983AA24A394B12C6401E8943C
:1015400057F853FC04C04A141B0409F018F5342C56
:10155000A114B10431F5332009F469CFB70180E259
:1015600090E00E94EE0B3A94F6CFD8018C918983DB
:101570000E5F1F4FE0CFF801C190D1908F016B2D0E
:1015800070E056FC02C06FEF7FEFC6010E94E30BD4
:101590005C01D5CFB70180E290E00E94EE0B4A9447
:1015A000D2CFF60157FC859157FE81916F01B701AB
:1015B00090E00E94EE0B31103A94B1E0AB1AB10802
:1015C000C7CF843619F0893609F074C0F80157FE88
:1015D0006AC061917191819191918F01E52DEF76B2
:1015E000DE2E97FF09C090958095709561957F4F8D
:1015F0008F4F9F4F6894D7F82AE030E0A4010E94F3
:101600001E0CC82EC818AC2C5D2CD6FE0CC0E8945D
:1016100050F8CB1440F4D4FE05C0D2FC03C05D2DBD
:101620005E7E552EAB2C54FE98C0FE01EC0DF11DD4
:101630008081803309F08AC0652D697E562E752D14
:101640007870372E53FC98C050FE92C0BC2CA41466
:1016500018F44C0CB42CBA1854FE94C0B70180E3B3
:1016600090E00E94EE0B52FE09C088E790E051FE28
:1016700002C088E590E0B7010E94EE0BCB1408F49D
:101680008DC0CA94D12C8FEFC81AD80AC80CD91CA7
:10169000D6018E916D01B70190E00E94EE0B8C1483
:1016A0009D04B1F758CF61917191072E000C880B02
:1016B000990B93CFD52CE894D4F82AE030E0853705
:1016C00039F1F52DF97FDF2E8037A9F058F48835F0
:1016D000A9F08F36D9F0F701868197812F96E2E144
:1016E0000C94980C8837B9F7D4FE02C06894D2F8ED
:1016F00020E130E00DC06894D4F8F6CF54FE03C06A
:101700002F2F2660D22E20E132E002C028E030E008
:10171000F801D7FE15C041915191619171914C87AB
:101720005D876E877F878F01A4016C857D858E859F
:101730009F850E941E0CC82EC818E894D7F863CF66
:1017400081919191AC0170E060E0E9CF52FC02C060
:10175000A39475CFA394A39472CF852D867809F4B2
:101760006ECFF6CFB70180E290E00E94EE0BA3941B
:10177000A414C0F3312C70CF342C3A18A41408F4FC
:101780006BCFF8CF852D867809F478CF8BE251FEA8
:1017900080E257FC8DE2B70190E06ECFB70180E3A5
:1017A00090E00E94EE0BBA9469CF8FEF9FEF96CF37
:1017B000FC010590615070400110D8F7809590951C
:1017C0008E0F9F1F0895FC01615070400190011021
:1017D000D8F7809590958E0F9F1F08950F931F93B4
:1017E000CF93DF93182F092FEB018B8181FD09C067
:1017F0001FEF0FEF812F902FDF91CF911F910F914E
:10180000089582FF14C02E813F818C819D8128170D
:1018100039073CF4E881F981CF01019699838883E7
:1018200010838E819F8101969F838E83E3CFE8850D
:10183000F985812F0995892BA1F3DACFFA01AA271F
:10184000283051F1203181F1E8946F936E7F6E5F03
:101850007F4F8F4F9F4FAF4FB1E03ED0B4E03CD0B1
:10186000670F781F891F9A1FA11D680F791F8A1F94
:10187000911DA11D6A0F711D811D911DA11D20D0FB
:1018800009F468943F912AE0269F11243019305DB5
:101890003193DEF6CF010895462F4770405D4193A6
:1018A000B3E00FD0C9F7F6CF462F4F70405D4A33F3
:1018B00018F0495D31FD4052419302D0A9F7EACFBB
:1018C000B4E0A6959795879577956795BA95C9F7EA
:1018D00000976105710508959B01AC010A2E0694DD
:1018E0005795479537952795BA95C9F7620F731F96
:1018F000841F951FA01D08952F923F924F925F92D3
:101900006F927F928F929F92AF92BF92CF92DF920F
:10191000EF92FF920F931F93CF93DF93CDB7DEB774
:10192000CA1BDB0B0FB6F894DEBF0FBECDBF099408
:101930002A88398848885F846E847D848C849B845F
:10194000AA84B984C884DF80EE80FD800C811B816D
:10195000AA81B981CE0FD11D0FB6F894DEBF0FBE9C
:0A196000CDBFED010895F894FFCF0C
:10196A00256C75000D0A3D3D3D2041565220496EB9
:10197A00666572656E6365204C6174656E63792075
:10198A0042656E63686D61726B203D3D3D0D0A00D4
:10199A004D6F64656C3A200045787472615F5472C9
:1019AA006565735F4E6F5F4F76657273616D706CBC
:1019BA00696E6700465F4350553A203136204D48DC
:1019CA007A0D0A0054726565733A20000D0A0D0AF1
:1019DA00005761726D2D75702E2E2E0D0A000D0A9C
:1019EA0042656E63686D61726B20526573756C74C3
:1019FA007320286379636C6573293A0D0A00536171
:101A0A006D706C652C4379636C65732C50726564D8
:101A1A00696374696F6E0D0A000D0A3D3D3D2053DE
:101A2A00756D6D617279203D3D3D0D0A00546F74EC
:101A3A00616C20697465726174696F6E733A2035DE
:101A4A00300D0A004D696E206379636C65733A2024
:101A5A00004D6178206379636C65733A20004176A2
:101A6A0067206379636C65733A20000D0A4174201C
:101A7A003136204D487A3A0D0A004D696E20746954
:101A8A006D6520287573293A2000417667207469AC
:101A9A006D6520287573293A20004D617820746994
:101AAA006D6520287573293A20000D0A3D3D3D20B9
:101ABA0042656E63686D61726B20436F6D706C6511
:101ACA007465203D3D3D0D0A000000803F00000086
:101ADA003F000000400000C03F00000000000080FE
:101AEA003F0000003F000000400000C03F0000002F
:101AFA00000000803F0000003F000000400000C0DE
:101B0A003F000000000000803F00000000000000CD
:101B1A0000000000000000000000000000000000BB
:101B2A0000000000000000000000000000000000AB
:101B3A00000000000000000000000000000000009B
:101B4A000000000000000000000000A0400000A00B
:101B5A00400000A0400000A0400000A0400000A0FB
:101B6A00400000A0400000A0400000A0400000A0EB
:101B7A00400000A0400000A0400000A0400000A0DB
:101B8A00400000A0400000A040000020400000806B
:101B9A003F000040400000003F000000400000C03D
:101BAA003FCDCC4C3F9A99993F00002040000080DD
:101BBA003F000040400000003F000000400000C01D
:101BCA003FCDCC4C3F9A99993F000020410000003C
:101BDA00410000C0400000804000000040000000BA
:101BEA00000000803F000040400000A0400000E0EC
:101BFA0040000010410000304100005041000070D8
:101C0A0041000088410000984100000000000000E7
:101C1A00000000000000000000120000FF3001A0D8
:101C2A00022D0200FF0E02930200FF93020E012B07
:0A1C3A00000E0143010011A7050090
:00000001FF
