:100000000C94640A0C94790A0C94790A0C94790A79
:100010000C94790A0C94790A0C94790A0C94790A54
:100020000C94790A0C94790A0C94790A0C94790A44
:100030000C94790A0C94790A0C94790A0C94790A34
:100040000C94790A0C94790A0C94790A0C94790A24
:100050000C94790A0C94790A0C94790A0C94790A14
:100060000C94790A0C94790AD21364120E11A40E1E
:10007000720DF00A4A08E0050A037C00070101003E
:1000800002000C0B030004000B0105000600030234
:1000900007000800000009000A000D020B000C0018
:1000A00000000D000E0003000F0010000F021100F1
:1000B00012000F14130014000000150016000F00AA
:1000C00017001800074D19001A0007431B001C00F9
:1000D0000C041D001E0009001F0020000C0A210056
:1000E00022000000230024000F0525002600030243
:1000F000270028000F2629002A000C0D2B002C00B9
:1001000000002D002E00072F2F0030000F133100AC
:1001100032000B00330034000D02350036000F11A1
:1001200037003800FF0000000000000039003A00EE
:1001300000003B003C0000003D003E0000003F008E
:1001400040000C00410042000000430044000D0349
:1001500045004600030447004800031849004A00D0
:1001600000004B004C0000004D004E0003184F00F3
:100170005000000051005200FF000000000000008D
:10018000530054000F145500560004005700580047
:100190000F0A59005A000F005B005C00061F5D004B
:1001A0005E0000005F006000FF00000000000F071D
:1001B000610062000F2263006400FF000000000085
:1001C000FF00000000000C03650066000B016700E3
:1001D0006800FF0000000000000069006A00FF00E6
:1001E0000000000000006B006C00FF000000000039
:1001F000FF0000000000FF0000000000FF00000002
:100200000000FF0000000000FF0000000000FF00F1
:1002100000000000FF0000000000FF0000000000E0
:10022000FF0000000000FF0000000000FF000000D1
:100230000000FF0000000000FF0000000000FF00C1
:1002400000000000FF0000000000FF0000000000B0
:10025000FF0000000000FF0000000000FF000000A1
:100260000000FF0000000000FF0000000000FF0091
:1002700000000000FF0000000000FF000000000080
:10028000FF0000000000FF0000000000FF00000071
:100290000000FF0000000000FF0000000000FF0061
:1002A00000000000FF0000000000FF000000000050
:1002B000FF0000000000FF0000000000FF00000041
:1002C0000000FF0000000000FF0000000000FF0031
:1002D00000000000FF0000000000FF000000000020
:1002E000FF0000000000FF0000000000FF00000011
:1002F0000000FF0000000000FF0000000000FF0001
:1003000000000000FF000000000001FF01000200EB
:100310000900030004000C000500060009000700A6
:100320000800000009000A0007010B000C0007008C
:100330000D000E0000000F0010000200110012005E
:100340000400130014000A00150016000F00170027
:1003500018000C0019001A0003021B001C000F11EA
:100360001D001E000A011F002000000021002200C5
:1003700002002300240004002500260000002700BE
:100380002800040129002A0009052B002C00000088
:100390002D002E0006002F0030000F00310032002B
:1003A0000F0033003400FF00000000000F00350094
:1003B00036000F08370038000C0739003A000000FB
:1003C0003B003C000F003D003E000E003F0040009F
:1003D0000000410042000D034300440002004500BC
:1003E00046000F00470048000A0049004A000A037F
:1003F0004B004C000F004D004E000F004F0050000E
:10040000040151005200020053005400090255003B
:1004100056000905570058000A0059005A0002000A
:100420005B005C000F005D005E000B005F00600081
:100430000304610062000C0063006400072F650084
:1004400066000C00670068000F0069006A00000089
:100450006B006C0006006D006E0000006F00700005
:100460000616710072000000730074000C02750023
:1004700076000C0677007800FF0000000000FF0007
:1004800000000000FF0000000000FF00000000006E
:10049000FF0000000000FF0000000000FF0000005F
:1004A0000000FF0000000000FF0000000000FF004F
:1004B00000000000FF0000000000FF00000000003E
:1004C000FF0000000000FF0000000000FF0000002F
:1004D0000000FF0000000000FF0000000000FF001F
:1004E00000000000FF0000000000FF00000000000E
:1004F000FF0000000000FF0000000000FF000000FF
:100500000000FF0000000000FF0000000000FF00EE
:1005100000000000FF0000000000FF0000000000DD
:10052000FF0000000000FF0000000000FF000000CE
:100530000000FF0000000000FF0000000000FF00BE
:1005400000000000FF0000000000FF0000000000AD
:10055000FF0000000000FF0000000000FF0000009E
:100560000000FF0000000000FF0000000000FF008E
:1005700000000000FF0000000000FF00000000007D
:10058000FF0000000000FF0000000000FF0000006E
:100590000000FF0000000000FF0000000000FF005E
:1005A00000000000FF0000000000FF00000000004D
:1005B000FF0000000000FF0000000000FF0000003E
:1005C0000000FF0000000000FF0000000000FF002E
:1005D00000000000FF0000000000FF00000000001D
:1005E0000300010002000900030004000F000500E1
:1005F00006000C0707000800000009000A000C00B4
:100600000B000C000F000D000E0000000F0010008A
:100610000C08110012000401130014000F00150053
:1006200016000F00170018000F0019001A00040030
:100630001B001C000B001D001E000A011F002000F3
:10064000000021002200000023002400FF00000021
:1006500000000401250026000A0327002800FF00EF
:1006600000000000FF0000000000000029002A0038
:1006700006002B002C000B002D002E0000002F0088
:1006800030000400310032000700330034000C0059
:10069000350036000F11370038000F0039003A00DE
:1006A00004003B003C0000003D003E000D033F0005
:1006B0004000FF0000000000FF00000000000A00F2
:1006C000410042000200430044000402450046008D
:1006D0000E0047004800000049004A0004014B009A
:1006E0004C000F004D004E000B004F005000FF006B
:1006F000000000000D03510052000400530054009C
:100700000000550056000000570058000600590030
:100710005A0004005B005C000F005D005E000C00EE
:100720005F0060000302610062000D01630064006D
:10073000000065006600FF0000000000FF000000F0
:100740000000FF0000000000FF0000000000FF00AC
:1007500000000000FF0000000000FF00000000009B
:10076000FF0000000000FF0000000000FF0000008C
:100770000000FF0000000000FF0000000000FF007C
:1007800000000000FF0000000000FF00000000006B
:10079000FF0000000000FF0000000000FF0000005C
:1007A0000000FF0000000000FF0000000000FF004C
:1007B00000000000FF0000000000FF00000000003B
:1007C000FF0000000000FF0000000000FF0000002C
:1007D0000000FF0000000000FF0000000000FF001C
:1007E00000000000FF0000000000FF00000000000B
:1007F000FF0000000000FF0000000000FF000000FC
:100800000000FF0000000000FF0000000000FF00EB
:1008100000000000FF0000000000FF0000000000DA
:10082000FF0000000000FF0000000000FF000000CB
:100830000000FF0000000000FF0000000000FF00BB
:1008400000000000FF0000000000030201000200A1
:100850000701030004000F0805000600030007005D
:1008600008000B0109000A000F070B000C00000034
:100870000D000E0009000F0010000C001100120006
:100880000D02130014000000150016000F051700DC
:1008900018000F0719001A000D031B001C000C0B99
:1008A0001D001E000C071F00200000002100220078
:1008B0000F00230024000600250026000F0027005B
:1008C0002800074D29002A000C012B002C000C04E5
:1008D0002D002E000F052F0030000F0631003200D2
:1008E000FF00000000000000330034000318350052
:1008F00036000F08370038000C0B39003A000000B2
:100900003B003C0000003D003E000C083F00400062
:10091000040141004200FF00000000000F004300FE
:1009200044000F00450046000C09470048000F1125
:1009300049004A0006164B004C000F134D004E00B4
:100940000B004F0050000F0751005200FF00000045
:1009500000000F1153005400000055005600000025
:10096000570058000F0559005A0000005B005C005A
:1009700006005D005E0000005F0060000000610096
:100980006200FF00000000000D03630064000F0A16
:1009900065006600FF00000000000B0067006800B3
:1009A0000D0169006A0004036B006C0004046D0013
:1009B0006E0004056F007000FF0000000000FF00E3
:1009C00000000000FF0000000000FF000000000029
:1009D000FF0000000000FF0000000000FF0000001A
:1009E0000000FF0000000000FF0000000000FF000A
:1009F00000000000FF0000000000FF0000000000F9
:100A0000FF0000000000FF0000000000FF000000E9
:100A10000000FF0000000000FF0000000000FF00D9
:100A200000000000FF0000000000FF0000000000C8
:100A3000FF0000000000FF0000000000FF000000B9
:100A40000000FF0000000000FF0000000000FF00A9
:100A500000000000FF0000000000FF000000000098
:100A6000FF0000000000FF0000000000FF00000089
:100A70000000FF0000000000FF0000000000FF0079
:100A800000000000FF0000000000FF000000000068
:100A9000FF0000000000FF0000000000FF00000059
:100AA0000000FF0000000000FF0000000000FF0049
:100AB00000000000FF0000000000FF000000000038
:100AC000FF0000000000FF0000000000FF00000029
:100AD0000000FF0000000000FF0000000000FF0019
:100AE00000000000FF0000000000FF000000000008
:100AF0000F000100020001FF0300040007000500D1
:100B000006000E0E07000800070209000A00030095
:100B10000B000C000C000D000E0009000F0010006F
:100B20000000110012000C00130014000731150022
:100B300016000900170018000F0019001A000B001A
:100B40001B001C0003021D001E000F001F002000E0
:100B5000000021002200090023002400FF00000003
:100B600000000F00250026000F00270028000F00BE
:100B700029002A0007412B002C000C072D002E0015
:100B800000002F0030000F00310032000D00330054
:100B90003400060035003600030337003800070133
:100BA00039003A000B013B003C0009003D003E00CB
:100BB0000E003F004000FF0000000000FF000000AA
:100BC0000000090041004200FF000000000000009A
:100BD000430044000000450046000C034700480065
:100BE000000049004A000F004B004C00FF000000CD
:100BF0000000FF0000000000FF00000000000000F7
:100C00004D004E000C084F005000040151005200EE
:100C1000FF00000000000D005300540004005500C8
:100C200056000F0157005800030259005A000000F7
:100C30005B005C0004035D005E0007025F00600073
:100C40000F05610062000F11630064000624650057
:100C500066000D0367006800062769006A00FF0050
:100C600000000000FF0000000000FF000000000086
:100C7000FF0000000000FF0000000000FF00000077
:100C80000000FF0000000000FF0000000000FF0067
:100C900000000000FF0000000000FF000000000056
:100CA000FF0000000000FF0000000000FF00000047
:100CB0000000FF0000000000FF0000000000FF0037
:100CC00000000000FF0000000000FF000000000026
:100CD000FF0000000000FF0000000000FF00000017
:100CE0000000FF0000000000FF0000000000FF0007
:100CF00000000000FF0000000000FF0000000000F6
:100D0000FF0000000000FF0000000000FF000000E6
:100D10000000FF0000000000FF0000000000FF00D6
:100D200000000000FF0000000000FF0000000000C5
:100D3000FF0000000000FF0000000000FF000000B6
:100D40000000FF0000000000FF0000000000FF00A6
:100D500000000000FF0000000000FF000000000095
:100D6000FF0000000000FF0000000000FF00000086
:100D700000000701010002000C0B03000400FF004B
:100D8000000000000C0A0500060000000700080033
:100D9000090009000A0000000B000C0000000D0013
:100DA0000E0000000F0010000700110012000000EC
:100DB000130014000C0B150016000B001700180090
:100DC0000F2619001A000D031B001C000C0D1D003E
:100DD0001E000F101F0020000C07210022000B0036
:100DE00023002400040125002600FF00000000006D
:100DF000040027002800FF0000000000FF000000A2
:100E00000000FF00000000000F1429002A00FF006E
:100E1000000000000F0E2B002C000D042D002E00F2
:100E2000FF00000000000F142F003000FF00000042
:100E300000000F1A31003200FF0000000000FF0028
:100E400000000000FF0000000000FF0000000000A4
:100E5000FF0000000000FF0000000000FF00000095
:100E60000000FF0000000000FF0000000000FF0085
:100E700000000000FF0000000000FF000000000074
:100E8000FF0000000000FF0000000000FF00000065
:100E90000000FF0000000000FF0000000000FF0055
:100EA000000000000300010002000900030004002C
:100EB0000C00050006000C070700080000000900F0
:100EC0000A000C000B000C0003020D000E000000D5
:100ED0000F0010000C081100120004011300140090
:100EE0000200150016000400170018000000190089
:100EF0001A0007001B001C000F021D001E000A0143
:100F00001F00200000002100220004002300240014
:100F1000FF00000000000401250026000200270059
:100F200028000F0029002A00FF00000000000C002C
:100F30002B002C000F002D002E000B012F00300085
:100F40000400310032000F0033003400000035008F
:100F500036000F00370038000F0339003A0009004F
:100F60003B003C000E003D003E00FF000000000082
:100F70000D033F004000FF0000000000FF000000E4
:100F800000000F0041004200020043004400020044
:100F900045004600FF0000000000FF0000000000C8
:100FA0000F00470048000C0049004A000F004B00AA
:100FB0004C00FF000000000000004D004E000F003C
:100FC0004F0050000000510052000B00530054002D
:100FD0000000550056000400570058000C0059004E
:100FE0005A000F115B005C0000005D005E00031AF8
:100FF0005F0060000F0061006200030C630064008A
:10100000000065006600FF0000000000FF00000017
:101010000000FF0000000000FF0000000000FF00D3
:1010200000000000FF0000000000FF0000000000C2
:10103000FF0000000000FF0000000000FF000000B3
:101040000000FF0000000000FF0000000000FF00A3
:1010500000000000FF0000000000FF000000000092
:10106000FF0000000000FF0000000000FF00000083
:101070000000FF0000000000FF0000000000FF0073
:1010800000000000FF0000000000FF000000000062
:10109000FF0000000000FF0000000000FF00000053
:1010A0000000FF0000000000FF0000000000FF0043
:1010B00000000000FF0000000000FF000000000032
:1010C000FF0000000000FF0000000000FF00000023
:1010D0000000FF0000000000FF0000000000FF0013
:1010E00000000000FF0000000000FF000000000002
:1010F000FF0000000000FF0000000000FF000000F3
:101100000000FF0000000000FF00000000000300DE
:1011100001000200FF00000000000F0003000400B7
:101120000D00050006000F0007000800060009007A
:101130000A000F000B000C0004000D000E000B0055
:101140000F0010000F001100120004031300140020
:101150000C0315001600FF00000000000600170039
:101160001800070019001A000C001B001C000F11CA
:101170001D001E0000001F0020000F0021002200A3
:101180000B0123002400060225002600FF000000BA
:1011900000000D03270028000C0029002A000D0282
:1011A0002B002C0004002D002E000F002F0030001B
:1011B0000D00310032000B00330034000D0135000A
:1011C0003600000037003800FF0000000000FF007C
:1011D00000000000FF0000000000FF000000000011
:1011E000FF0000000000FF0000000000FF00000002
:1011F0000000FF0000000000FF0000000000FF00F2
:1012000000000000FF0000000000FF0000000000E0
:10121000FF0000000000FF0000000000FF000000D1
:101220000000FF0000000000FF0000000000FF00C1
:1012300000000000FF0000000000FF0000000000B0
:10124000FF0000000000FF0000000000FF000000A1
:101250000000FF0000000000FF0000000000FF0091
:10126000000000000302010002000F180300040048
:101270000F02050006000C09070008000F180900FE
:101280000A0000000B000C000F030D000E0004000C
:101290000F001000040611001200FF000000000003
:1012A000FF00000000000D031300140003041500EC
:1012B0001600030C17001800000019001A000000A7
:1012C0001B001C00FF0000000000FF0000000000E9
:1012D0000C091D001E00FF0000000000FF000000C0
:1012E000000004021F0020000F00210022000D0456
:1012F000230024000317250026000D0327002800E3
:101300000F0329002A0000002B002C00FF00000022
:101310000000FF0000000000FF0000000000FF00D0
:1013200000000000FF0000000000FF0000000000BF
:101330000F002D002E0008002F003000FF000000DD
:1013400000000D03310032000F0233003400031897
:10135000350036000F03370038000F0339003A001C
:101360000F0C3B003C00FF0000000000FF000000ED
:101370000000FF0000000000FF0000000000FF0070
:1013800000000000FF0000000000FF00000000005F
:10139000FF0000000000FF0000000000FF00000050
:1013A0000000FF0000000000FF0000000000FF0040
:1013B00000000000FF0000000000FF00000000002F
:1013C000FF0000000000FF0000000000FF00000020
:1013D00000000F000100020001FF030004000700ED
:1013E00005000600FF0000000000070207000800DB
:1013F000030009000A000C000B000C000C000D009B
:101400000E00FF0000000000FF00000000000D00C3
:101410000F0010000B00110012000F071300140042
:101420000F0015001600FF00000000000F0017005D
:101430001800FF0000000000070119001A00030354
:101440001B001C00FF0000000000FF000000000067
:1014500000001D001E0000001F0020000F002100E2
:1014600022000F0123002400000025002600FF00B9
:1014700000000000070227002800FF000000000015
:10148000FF0000000000FF0000000000FF0000005F
:101490000000FF0000000000FF0000000000FF004F
:1014A00000000000FF0000000000FF00000000003E
:1014B000FF0000000000FF0000000000FF0000002F
:1014C0000000FF000000000011241FBECFEFD8E095
:1014D000DEBFCDBF13E0A0E0B1E0E2E2F3E202C084
:1014E00005900D92A03EB107D9F70E94CD0A0C9449
:1014F0008F110C9400001092C50087E68093C40001
:1015000088E08093C10086E08093C20008959091A6
:10151000C00095FFFCCF8093C6000895CF93DF9362
:10152000EC018991811103C0DF91CF9108950E9450
:10153000870AF7CF0F931F93CF93DF93CDB7DEB713
:101540002C970FB6F894DEBF0FBECDBF9F938F933D
:101550007F936F9380E091E09F938F938E010F5F55
:101560001F4F1F930F930E94B90EC8010E948E0A4D
:101570000FB6F894DEBF0FBECDBF2C960FB6F89411
:10158000DEBF0FBECDBFDF91CF911F910F910895A8
:1015900010928000109281000895CDB7DEB7A19718
:1015A0000FB6F894DEBF0FBECDBF0E947B0A0E942B
:1015B000C80A84E091E00E948E0A80E391E00E94D4
:1015C0008E0A88E391E00E948E0A84E791E00E94EF
:1015D0008E0A8AE591E00E948E0A8AE691E00E94D6
:1015E0008E0A64E170E080E090E00E949A0A82E74F
:1015F00091E00E948E0A87E791E00E948E0A1AE02D
:10160000BE016F5F7F4F8FE692E00E948A0CCE0191
:1016100001960E94EB0C898B8989115089F784E827
:1016200091E00E948E0A84EA91E00E948E0A0FE601
:1016300012E0812C912C54011E8A1F8A188E198E5B
:101640002FEF3FEFA9012A8B3B8B4C8B5D8B1A8EC2
:101650001B8E1C8E1D8EBE016F5F7F4FC8010E94C6
:101660008A0C3AE0732ECE0101960E94360D6B0172
:101670007C01C501B4010E949A0A8CE20E94870A8B
:10168000C701B6010E949A0A8CE20E94870ACE0125
:1016900001960E94EB0C282F30E050E040E0CA0198
:1016A000B9010E949A0A84E791E00E948E0A8A8D0D
:1016B0009B8DAC8DBD8D8C0D9D1DAE1DBF1D8A8F6C
:1016C0009B8FAC8FBD8F2A893B894C895D89C2165F
:1016D000D306E406F50620F4CA8ADB8AEC8AFD8A82
:1016E0008E899F89A88DB98D8C159D05AE05BF0586
:1016F00020F4CE8ADF8AE88EF98E7A947110B3CF07
:10170000005C1F4F9FEF891A990AA90AB90AA5E040
:101710008A169104A104B10409F09DCF8FEB91E0EA
:101720000E948E0A83ED91E00E948E0A8AEE91E07B
:101730000E948E0A6A897B898C899D890E949A0AF7
:1017400084E791E00E948E0A87EF91E00E948E0A62
:101750006E897F89888D998D0E949A0A84E791E02D
:101760000E948E0A84E092E00E948E0A6A8D7B8D30
:101770008C8D9D8D22E330E040E050E00E94660DAC
:101780002E8F3F8F48A359A3CA01B9010E949A0A1C
:1017900084E791E00E948E0A81E192E00E948E0A25
:1017A00080E292E00E948E0A2A893B894C895D89F9
:1017B00084E056954795379527958A95D1F7CA01C4
:1017C000B9010E949A0A84E791E00E948E0A80E3A0
:1017D00092E00E948E0A6A8D7B8D8C8D9D8D20E219
:1017E00033E040E050E00E94660D2A8B3B8B4C8B2F
:1017F0005D8BCA01B9010E949A0A84E791E00E94B8
:101800008E0A80E492E00E948E0A8E899F89A88DBC
:10181000B98D24E0B695A795979587952A95D1F728
:101820008E8B9F8BA88FB98FBC01CD010E949A0A25
:1018300084E791E00E948E0A80E592E00E948E0A81
:101840009FEFA3EDB0E39150A040B040E1F700C09E
:101850000000F6CFFF920F931F93CF93DF9300D03A
:1018600000D000D0CDB7DEB7F62E072F182F9E83FD
:1018700050E0FA01EE0FFF1FE154FC4F8591949167
:1018800041555C4FFA01F491FD839C01990F440B83
:10189000550B29833A834B835C83CA01B9010E94AB
:1018A000C00D2F2D302F412F5E8169837A838B836A
:1018B0009C8369817A818B819C810E94240E69833B
:1018C0007A838B839C8369817A818B819C810E943E
:1018D000880DBB2797FDBA95A92F982F872F4D818B
:1018E000242F30E0820F931F97FD10C08F3F91058A
:1018F00009F074F426960FB6F894DEBF0FBECDBF84
:10190000DF91CF911F910F91FF90089580E0F2CF6A
:101910008FEFF0CFEF92FF920F931F93CF93DF9350
:1019200000D000D00F92CDB7DEB77C018B011D82B5
:10193000F70181919191A191B1917F0189839A835E
:10194000AB83BC834D81BC01CD010E942A0CD80120
:101950008D938D01BD81BF5FBD83B03149F70F907D
:101960000F900F900F900F90DF91CF911F910F91DB
:10197000FF90EF900895AC01DB01F0E0E0E096E02D
:101980009E9F90019F9F300D1124FA01E20FF31FDB
:101990006491F9013196E40FF51F84916F3FD1F006
:1019A000FD01E60FF11D6081F901861760F03296A6
:1019B000E40FF51F8491F9013396E40FF51FE491CC
:1019C000FE2FE82FDDCF3496E40FF51F8491F90147
:1019D0003596F3CF0895EF92FF920F931F93CF9315
:1019E000DF9300D000D00F92CDB7DEB7F82EE92EEE
:1019F0001A821982FE01339683E0DF011D928A95D7
:101A0000E9F708E610E0F801859194916F2D7E2D9D
:101A10000E94BB0CE82F853050F481E090E08C0FE1
:101A20009D1F8E0F911DFC0180818F5F80830E5F53
:101A30001F4F90E00C37190731F7FE01319690E007
:101A400080E020E03191231710F4892F232F9F5F2E
:101A50009530C1F70F900F900F900F900F90DF917E
:101A6000CF911F910F91FF90EF900895EF92FF9209
:101A70000F931F93CF93DF9300D000D00F92CDB779
:101A8000DEB704E810E0F8011182108221E8E22EAE
:101A9000F12C21E0F70120830E94EB0C89838981DE
:101AA000F7011082F801808191819C0150E040E0B3
:101AB000CA01B9010F900F900F900F900F90DF9116
:101AC000CF911F910F91FF90EF900895A1E21A2EF0
:101AD000AA1BBB1BFD010DC0AA1FBB1FEE1FFF1FD2
:101AE000A217B307E407F50720F0A21BB30BE40B22
:101AF000F50B661F771F881F991F1A9469F7609569
:101B00007095809590959B01AC01BD01CF01089522
:101B10000E948F0D6894B1110C941E0E08950E94BE
:101B2000030E88F09F5798F0B92F9927B751B0F05E
:101B3000E1F0660F771F881F991F1AF0BA95C9F751
:101B400014C0B13091F00E941D0EB1E008950C94C4
:101B50001D0E672F782F8827B85F39F0B93FCCF377
:101B6000869577956795B395D9F73EF490958095CE
:101B7000709561957F4F8F4F9F4F0895E89409C0EE
:101B800097FB3EF490958095709561957F4F8F4FB0
:101B90009F4F9923A9F0F92F96E9BB279395F695C6
:101BA000879577956795B795F111F8CFFAF4BB0F44
:101BB00011F460FF1BC06F5F7F4F8F4F9F4F16C0A8
:101BC000882311F096E911C0772321F09EE8872F32
:101BD000762F05C0662371F096E8862F70E060E0EE
:101BE0002AF09A95660F771F881FDAF7880F969567
:101BF000879597F9089557FD9058440F551F59F050
:101C00005F3F71F04795880F97FB991F61F09F3FE9
:101C100079F087950895121613061406551FF2CF12
:101C20004695F1DF08C0161617061806991FF1CF62
:101C300086957105610508940895E894BB27662789
:101C40007727CB0197F908950E94370E0C94A80EC0
:101C50000E949A0E38F00E94A10E20F0952311F0F8
:101C60000C94910E0C94970E11240C941E0E0E944D
:101C7000FB0D70F3959FC1F3950F50E0551F629FC8
:101C8000F001729FBB27F00DB11D639FAA27F00DD5
:101C9000B11DAA1F649F6627B00DA11D661F829FFC
:101CA0002227B00DA11D621F739FB00DA11D621FE1
:101CB000839FA00D611D221F749F3327A00D611DFE
:101CC000231F849F600D211D822F762F6A2F1124E0
:101CD0009F5750409AF0F1F088234AF0EE0FFF1F13
:101CE000BB1F661F771F881F91505040A9F79E3F6A
:101CF000510580F00C94910E0C941E0E5F3FE4F39E
:101D0000983ED4F3869577956795B795F795E795BF
:101D10009F5FC1F7FE2B880F911D9695879597F9C8
:101D2000089597F99F6780E870E060E008959FEF5D
:101D300080EC089500240A94161617061806090662
:101D4000089500240A941216130614060506089531
:101D5000092E0394000C11F4882352F0BB0F40F4B9
:101D6000BF2B11F460FF04C06F5F7F4F8F4F9F4FF9
:101D70000895AEE0B0E0EFEBFEE00C9466110D8943
:101D80001E8986E08C831A8309838FEF9FE79E83E9
:101D90008D83AE01475E5F4F6F89788DCE010196CE
:101DA0000E94DC0E2F813885020F131FF80110826C
:101DB0002E96E4E00C948211AFE0B0E0E2EEFEE09B
:101DC0000C9458117C013B018A01DC0117961C928E
:101DD0001E92169713968C9181FFC3C19AE0292E0B
:101DE000FE0131964F01D70113969C91F30193FDAB
:101DF000859193FF81913F01882309F448C1853281
:101E000039F493FD859193FF81913F01853229F447
:101E1000B70190E00E94CA10E6CFB12C412C512CA2
:101E2000BFE1B51538F08B3209F188F4803201F149
:101E3000833221F157FC3AC020ED280F2A3040F5BB
:101E400056FE1FC0B29C200D1124B22E06C08D324A
:101E500091F0803379F7689450F8F30193FD859100
:101E600093FF81913F018111DBCF20C0689451F82D
:101E7000689452F8F2CF689453F8EFCF689454F80E
:101E8000ECCF429C200D1124422E689455F8E5CFEA
:101E90008E3229F456FCFBC0689456F8DECF8C369F
:101EA00019F4689457F8D9CF8836B9F2982F9F7DE6
:101EB00095549330C0F08336A1F18337C1F1833557
:101EC00009F05BC0D801CD90DD908D016B2D70E0E5
:101ED00056FC02C06FEF7FEFC6010E94B4105C0198
:101EE000689457F80AC00C5F1F4FEFE3E983AA24F8
:101EF000A394B12C6401E89457F853FC04C04A142D
:101F00001B0409F018F5342CA114B10431F5332069
:101F100009F469CFB70180E290E00E94CA103A94B8
:101F2000F6CFD8018C9189830E5F1F4FE0CFF80167
:101F3000C190D1908F016B2D70E056FC02C06FEF05
:101F40007FEFC6010E94BF105C01D5CFB70180E2D0
:101F500090E00E94CA104A94D2CFF60157FC8591B6
:101F600057FE81916F01B70190E00E94CA103110B5
:101F70003A94B1E0AB1AB108C7CF843619F089366C
:101F800009F074C0F80157FE6AC0619171918191A6
:101F900091918F01E52DEF76DE2E97FF09C0909588
:101FA0008095709561957F4F8F4F9F4F6894D7F8BC
:101FB0002AE030E0A4010E94FA10C82EC818AC2C08
:101FC0005D2CD6FE0CC0E89450F8CB1440F4D4FE3F
:101FD00005C0D2FC03C05D2D5E7E552EAB2C54FE99
:101FE00098C0FE01EC0DF11D8081803309F08AC09C
:101FF000652D697E562E752D7870372E53FC98C04E
:1020000050FE92C0BC2CA41418F44C0CB42CBA187A
:1020100054FE94C0B70180E390E00E94CA1052FEC3
:1020200009C088E790E051FE02C088E590E0B70162
:102030000E94CA10CB1408F48DC0CA94D12C8FEF23
:10204000C81AD80AC80CD91CD6018E916D01B701E7
:1020500090E00E94CA108C149D04B1F758CF619192
:102060007191072E000C880B990B93CFD52CE89417
:10207000D4F82AE030E0853739F1F52DF97FDF2EED
:102080008037A9F058F48835A9F08F36D9F0F701D8
:10209000868197812F96E2E10C9474118837B9F705
:1020A000D4FE02C06894D2F820E130E00DC06894FC
:1020B000D4F8F6CF54FE03C02F2F2660D22E20E195
:1020C00032E002C028E030E0F801D7FE15C04191AF
:1020D0005191619171914C875D876E877F878F01E8
:1020E000A4016C857D858E859F850E94FA10C82E7F
:1020F000C818E894D7F863CF81919191AC0170E052
:1021000060E0E9CF52FC02C0A39475CFA394A394DE
:1021100072CF852D867809F46ECFF6CFB70180E2B5
:1021200090E00E94CA10A394A414C0F3312C70CF85
:10213000342C3A18A41408F46BCFF8CF852D867888
:1021400009F478CF8BE251FE80E257FC8DE2B701B3
:1021500090E06ECFB70180E390E00E94CA10BA947D
:1021600069CF8FEF9FEF96CFFC01059061507040D3
:102170000110D8F7809590958E0F9F1F0895FC0150
:102180006150704001900110D8F7809590958E0FA6
:102190009F1F08950F931F93CF93DF93182F092F3D
:1021A000EB018B8181FD09C01FEF0FEF812F902F75
:1021B000DF91CF911F910F91089582FF14C02E815E
:1021C0003F818C819D81281739073CF4E881F98192
:1021D000CF0101969983888310838E819F81019618
:1021E0009F838E83E3CFE885F985812F0995892B1D
:1021F000A1F3DACFFA01AA27283051F1203181F179
:10220000E8946F936E7F6E5F7F4F8F4F9F4FAF4FFE
:10221000B1E03ED0B4E03CD0670F781F891F9A1F11
:10222000A11D680F791F8A1F911DA11D6A0F711DC5
:10223000811D911DA11D20D009F468943F912AE0D1
:10224000269F11243019305D3193DEF6CF010895B9
:10225000462F4770405D4193B3E00FD0C9F7F6CFEA
:10226000462F4F70405D4A3318F0495D31FD4052B2
:10227000419302D0A9F7EACFB4E0A6959795879548
:1022800077956795BA95C9F7009761057105089527
:102290009B01AC010A2E06945795479537952795D3
:1022A000BA95C9F7620F731F841F951FA01D08956B
:1022B0002F923F924F925F926F927F928F929F9256
:1022C000AF92BF92CF92DF92EF92FF920F931F9344
:1022D000CF93DF93CDB7DEB7CA1BDB0B0FB6F894F5
:1022E000DEBF0FBECDBF09942A88398848885F8435
:1022F0006E847D848C849B84AA84B984C884DF80A6
:10230000EE80FD800C811B81AA81B981CE0FD11D89
:102310000FB6F894DEBF0FBECDBFED010895F8945F
:02232000FFCFED
:10232200256C75000D0A3D3D3D2041565220496EF7
:10233200666572656E6365204C6174656E637920B3
:1023420042656E63686D61726B203D3D3D0D0A0012
:102352004D6F64656C3A20004772616469656E7402
:102362005F426F6F7374696E675F4E6F5F4F766522
:102372007273616D706C696E6700465F4350553AC7
:10238200203136204D487A0D0A0054726565733A41
:1023920020000D0A0D0A005761726D2D75702E2EE8
:1023A2002E0D0A000D0A42656E63686D61726B2024
:1023B200526573756C747320286379636C65732935
:1023C2003A0D0A0053616D706C652C4379636C653C
:1023D200732C50726564696374696F6E0D0A000D27
:1023E2000A3D3D3D2053756D6D617279203D3D3D45
:1023F2000D0A00546F74616C2069746572617469AE
:102402006F6E733A2035300D0A004D696E20637984
:10241200636C65733A20004D6178206379636C6563
:10242200733A2000417667206379636C65733A20C2
:10243200000D0A4174203136204D487A3A0D0A00C7
:102442004D696E2074696D6520287573293A2000E4
:102452004176672074696D6520287573293A2000DA
:102462004D61782074696D6520287573293A2000C2
:102472000D0A3D3D3D2042656E63686D61726B20C1
:10248200436F6D706C657465203D3D3D0D0A000023
:1024920000803F0000003F000000400000C03F00FD
:1024A2000000000000803F0000003F0000004000EC
:1024B20000C03F000000000000803F0000003F001D
:1024C2000000400000C03F000000000000803F000C
:1024D20000000000000000000000000000000000FA
:1024E20000000000000000000000000000000000EA
:1024F20000000000000000000000000000000000DA
:1025020000000000000000000000000000000000C9
:1025120000A0400000A0400000A0400000A0400039
:1025220000A0400000A0400000A0400000A0400029
:1025320000A0400000A0400000A0400000A0400019
:1025420000A0400000A0400000A0400000A0400009
:102552000020400000803F000040400000003F009B
:102562000000400000C03FCDCC4C3F9A99993F00FB
:102572000020400000803F000040400000003F007B
:102582000000400000C03FCDCC4C3F9A99993F00DB
:10259200002041000000410000C0400000804000D7
:1025A200000040000000000000803F0000404000AA
:1025B20000A0400000E04000001041000030410057
:1025C2000050410000704100008841000098410025
:1025D20000000000000000000000000000000012E7
:1025E2000000FF3001A0022D0200FF0E0293020044
:1025F200FF93020E012B000E0143010011A70500FB
:00000001FF
